:100000000C94C7130C94F8130C94F8130C94F81375
:100010000C94F8130C94F8130C94F8130C94F81334
:100020000C94F8130C94F8130C94F8130C94F81324
:100030000C94F8130C94F8130C94F8130C94F81314
:100040000C94F8130C94F8130C94F8130C94F81304
:100050000C94F8130C94F8130C94F8130C94393591
:100060000C94F8130C9403350C94D9340C94F813B5
:100070000C94F8130C94F8130C94F8130C94F813D4
:100080000C94F8130C94F8130C94F8130C94F813C4
:100090000C94F8130C94F8130C94F8130C94833507
:1000A0000C94F8130C94F8130C94F8130C94F813A4
:1000B0000C94F8130C94F8130C94F8130C94F81394
:1000C0000C94F8130C94F8130C94F8130C94F81384
:1000D0000C94F8130C94F8130C94F8130C94F81374
:1000E0000C94F81300001B2E2002D09C0006272041
:1000F00017D3BA001B2E2002D05601192E2004D08F
:10010000E6011B272002D36A021B2E2002D0060321
:100110001B2E2002D0A203172A2006D01B041B2E60
:100120002002D0B7041B2E2002D003FFF800FFFFEF
:10013000803FFFF803FFFEC33FFFBCF0000FFF004E
:1001400001FFE0003FFC0007FF8000FFF0001FFE02
:100150000003FFC0007FF8000FFF0001FFE0003F39
:10016000FC0007FF8000FFF0001FFC0000FE000005
:100170000700000040000004000000E000007F00D5
:10018000003FF0001FFE0003FFC0007FF8000FFFDC
:100190000001FFE0003FFC0007FF8000FFF0001FB0
:1001A000FE0003FFC0007FF8000FFF0001FFE0002A
:1001B0003F780003C67FFF301FFFF007FFFF007F7F
:1001C000FFC007FFF00031EFFFFFFFFFFFFFFFFF62
:1001D000FFFF3C30400033FFFFFFFFFFFFFFFFFF4B
:1001E000FFFDE30003FFF800FFFF803FFFF803FF80
:1001F000FEC03FFFBC00000FC00001F800003F0040
:100200000007E00000FC00001F800003F000007EFB
:1002100000000FC00001F800003F000007E00000F0
:10022000FC00001F800000F07FFF861FFFFC4FFFD7
:10023000FFE4FFFFF8E7FFFC1F000003F000007E73
:1002400000000FC00001F800003F000007E00000C0
:10025000FC00001F800003F000007E00000FC000C3
:1002600001F800003F000007E00000780000067F72
:10027000FF001FFFF007FFFF007FFFC007FFF00038
:100280000FFFE00FFFF80FFFFE03FFFEC0FFFEF0C1
:100290000000FC00007E00003F00001F80000FC037
:1002A0000007E00003F00001F80000FC00007E0001
:1002B000003F00001F80000FC00007E00000F1FFBA
:1002C000FE19FFFFC7FFFFF8FFFFF81FFFF18000D7
:1002D00003C00007E00003F00001F80000FC00008C
:1002E0007E00003F00001F80000FC00007E00003F9
:1002F000F00001F80000FC00007E00003F00000F4D
:1003000007FFF307FFFC07FFFF01FFFF007FFF0070
:1003100000000186000079E0001FFE0003FFC0001E
:100320007FF8000FFF0001FFE0003FFC0007FF80A7
:1003300000FFF0001FFE0003FFC0007FF8000FFF6A
:100340000001FFE0003FF80001FCFFFF0E3FFFF857
:100350009FFFFFC1FFFFF00FFFF8C0000078000013
:100360003F000007E00000FC00001F800003F000D9
:10037000007E00000FC00001F800003F000007E011
:100380000000FC00001F800003F000007E0000075A
:100390008000006003FFF800FFFF803FFFF803FFCD
:1003A000FE033FFF80F000003F000007E00000FC7C
:1003B00000001F800003F000007E00000FC000015D
:1003C000F800003F000007E00000FC00001F800074
:1003D00003F000007C00000E7FFF811FFFFC0FFF79
:1003E000FFE0FFFFF807FFFC6000003C00001F80FB
:1003F0000003F000007E00000FC00001F800003F85
:10040000000007E00000FC00001F800003F0000077
:100410007E00000FC00001F800003F000003C07F15
:10042000FF301FFFF007FFFF007FFFC007FFF00056
:1004300003FFF800FFFF803FFFF803FFFE033FFFCD
:1004400080F000003F000007E00000FC00001F807B
:100450000003F000007E00000FC00001F800003F24
:10046000000007E00000FC00001F800003F0000017
:100470007C00000E7FFF811FFFFC0FFFFFE4FFFFEA
:10048000F8E7FFFC7F00003FF0001FFE0003FFC005
:10049000007FF8000FFF0001FFE0003FFC0007FFB6
:1004A0008000FFF0001FFE0003FFC0007FF8000F78
:1004B000FF0001FFE0003F780003C67FFF301FFF11
:1004C000F007FFFF007FFFC007FFF0003FFF80FF46
:1004D000FF83FFFF83FFFEC3FFFBC0000FC0001FB1
:1004E00080003F00007E0000FC0001F80003F000E7
:1004F00007E0000FC0001F80003F00007E0000FCEE
:100500000001F80000F00000600000400000000062
:100510000000000600003C0001F80003F00007E0C6
:10052000000FC0001F80003F00007E0000FC0001A3
:10053000F80003F00007E0000FC0001F80003F003C
:10054000003C00003003FFF800FFFF803FFFF8038E
:10055000FFFEC33FFFBCF0000FFF0001FFE0003FC4
:10056000FC0007FF8000FFF0001FFE0003FFC0003B
:100570007FF8000FFF0001FFE0003FFC0007FF8055
:1005800000FFF0001FFC0000FE7FFF871FFFFC4FF5
:10059000FFFFE4FFFFF8E7FFFC7F00003FF0001FD4
:1005A000FE0003FFC0007FF8000FFF0001FFE00026
:1005B0003FFC0007FF8000FFF0001FFE0003FFC0AC
:1005C000007FF8000FFF0001FFE0003F780003C646
:1005D0007FFF301FFFF007FFFF007FFFC007FFF026
:1005E0000003FFF800FFFF803FFFF803FFFEC33F5B
:1005F000FFBCF0000FFF0001FFE0003FFC0007FF21
:100600008000FFF0001FFE0003FFC0007FF8000F16
:10061000FF0001FFE0003FFC0007FF8000FFF0004B
:100620001FFC0000FE7FFF871FFFFC4FFFFFE0FF66
:10063000FFF807FFFC6000003C00001F800003F093
:1006400000007E00000FC00001F800003F0000071E
:10065000E00000FC00001F800003F000007E0000AE
:100660000FC00001F800003F000003C07FFF301FF3
:10067000FFF007FFFF007FFFC007FFF00000000052
:1006800000060001000002120803EF05000606083C
:1006900001F00A000D100D00F124000B140D01EF04
:1006A000400014111501F06B000E111001F08900CB
:1006B00002060501F08B0005170802EF9A000517E6
:1006C0000801EFA90007070901EFB0000A0B0E02AD
:1006D000F6BE0002060702FFC00006020801F9C2CA
:1006E0000002020602FFC30007120700EFD3000B4F
:1006F000110D01F0EB0005110D03F0F6000B110DCB
:1007000001F00E010B110D01F026010B110D01F08E
:100710003E010B110D01F056010B110D01F06E01A0
:100720000B110D01F086010B110D01F09E010B1153
:100730000D01F0B601020D0602F4BA010210060224
:10074000F5BE010C0C0E01F5D0010C060E01F8D916
:10075000010C0C0E01F5EB010A120D02EF0202165C
:10076000151801EF3C0210121000EF60020D12107C
:1007700002EF7E020F121101EFA0020E121102EF22
:10078000C0020C120F02EFDB020B120E02EFF4029A
:1007900010121201EF18030D121102EF36030212AC
:1007A0000702EF3B0309120D01EF50030E12100276
:1007B000EF70030A120E02EF870310121402EFAB60
:1007C000030D121202EFC90311121301EFF0030C13
:1007D000121002EF0B0411131301EF34040E121167
:1007E00002EF54040E121001EF74040C120F01EF0B
:1007F0008F040D121102EFAD040F120F00EFCF04A2
:1008000016121600EF01050F121000EF230510124B
:100810001000EF47050D120F01EF650504170702E1
:10082000EF710507120700EF810504170701EF8D2F
:100830000509090B01F098050F010DFF049A050544
:10084000040601EF9D050C0D0D01F4B1050C120D10
:1008500001EFCC050A0D0C01F4DD050B120D01EFC3
:10086000F6050B0D0D01F4080605120701EF14063D
:100870000B120D01F42D060A120D01EF44060212AF
:100880000502EF490604170600EF55060B120C018E
:10089000EF6E0602120501EF7306110D1301F48FBE
:1008A000060A0D0D01F4A0060B0D0D01F4B2060CA5
:1008B000110D01F4CC060B110D01F4E406060D0830
:1008C00001F4EE060A0D0C01F4FF0605100701F114
:1008D00009070A0D0D01F41A070C0D0C00F42E0780
:1008E000110D1100F44A070B0D0B00F45C070B12FD
:1008F0000B00F475070A0D0C01F4860705170801B3
:10090000EF950702170602EF9B0705170802EFAAEB
:10091000070A050C01F6FFFFFFF0F0CF3CF38A2039
:10092000063031031818C7FFBFFC31031818C7FF82
:10093000BFFC31011818C0C606300403E1FF726C19
:100940004788F107207E03F017023C4788F11B26F9
:100950007FC3E0100200000603C0407E0C0E7080D2
:10096000C3180C3100E73007E6003C40000C7C0067
:100970008FE019C70118303183021C7040FE040754
:10098000C00F007E039C0C3030C0E701F803803EAE
:1009900001CC6E19B07CC0F303CE1F9FE61E1CFF76
:1009A000A0088C663198C6318C63086308610C20FE
:1009B0008218C318C318C6318C623188C462001013
:1009C000235BE38D91000C0300C030FFFFF0C030CB
:1009D0000C0300C0F560FFF0F0020C1020C1020C07
:1009E0001020C1020C1020C1001F07F1C7306E0F8C
:1009F00080F01E03C0780F01E03C0EC19C71FC1F0B
:100A00000008CFFF8C6318C6318C63181F0FF9875D
:100A1000607C0600C0180701C0F0781C060080301A
:100A200007FFFFE03F0FF387606C0C0180707C0FC5
:100A3000801801803C0780D873FC1F000180700E75
:100A400003C0D81B06618C218C33067FFFFE030098
:100A5000600C01803FCFF980300600DE1FE70E00FA
:100A6000E00C0180300781F873FC1F000F07F9C309
:100A70003074018033C7FEF0DC1F01E03C06C1DCAE
:100A800071FC1F00FFFFFC010060180200C030066F
:100A90000180300401803006018030001F07F1C75B
:100AA00030660CC18C61FC3F8E3B01E03C0780D876
:100AB00031FC1F001F07F1C7706C0780F01E076133
:100AC000EFFC79803005819873FC1E00F00003C0B4
:100AD000F0000F5600000701E0F83C0F00E007C0EF
:100AE0000F003C00F001FFFFFF000000FFFFFF00D0
:100AF0000E007801F007C00F00701E0F03C0F00851
:100B0000001F1FEE1B03C0C0300C060381C0E03085
:100B10000C030000000C030000FE000FFE00F03E7E
:100B200007003C380030C1E0660FD9D861C3C30765
:100B30000F1C1C3C6060F18183C6061B1838EE71E7
:100B4000E718FDF871E7C0E00001E00001FFC00117
:100B5000FC0003C003C003C007E0066006600E701F
:100B60000C300C301C3818181FF83FFC301C300CAF
:100B7000700E60066006FFC7FF3019806C03601BB3
:100B800000D80CFFC7FF300D803C01E00F00780655
:100B9000FFF7FE0007E03FF0E0738066006C003076
:100BA000006000C001800300060006006C00DC034A
:100BB0001E0E1FF80FC0FF83FF8C07300EC01B00F6
:100BC0007C00F003C00F003C00F003C01F006C036A
:100BD000B01CFFE3FF00FFFFFFC00C00C00C00C013
:100BE0000C00FFEFFEC00C00C00C00C00C00FFFFAB
:100BF000FFFFFFFF00600C0180300600FFDFFB00FD
:100C0000600C0180300600C0180007F01FFC3C1E7D
:100C100070066003E000C000C000C07FC07FC0035A
:100C2000C00360036007300F3C1F1FFB07E1C01EBD
:100C300000F007803C01E00F007803FFFFFFF007A2
:100C4000803C01E00F007803C01E00C0FFFFFFFFE3
:100C5000F00180C06030180C06030180C0603C1EAB
:100C60000F07C77F1F00C03B01CC0E3070C3831C31
:100C70000CE03380DE03DC0E383060C1C3038C0629
:100C8000301CC03B0060C0300C0300C0300C0300BF
:100C9000C0300C0300C0300C0300FFFFF0E007E0A1
:100CA00007F00FF00FD00FD81BD81BD81BCC33CCBC
:100CB00033CC33C663C663C663C3C3C3C3C3C3C134
:100CC00083E01F00FC07E03D81EE0F3079C3C61EB4
:100CD00018F0E7833C1DE06F01F80FC03E01C00330
:100CE000E00FFC0F078600C60033001B00078003DF
:100CF000C001E000F00078003600330018C018781A
:100D00003C1FFC03F800FF8FFEC06C03C03C03C017
:100D10003C07FFEFFCC00C00C00C00C00C00C00C76
:100D20000003E00FFC0F078600C60033001B00071E
:100D30008003C001E000F00078003600330198C065
:100D4000FC783C1FFF03F9800040FFC3FFCC03B0D9
:100D500006C01B006C01B00CFFE3FFCC03B006C063
:100D60001B006C01B006C01B00700FE07FC3839CAA
:100D700007600D8006001E003F803FC00F8007C047
:100D80000F003E00DE0E3FF03F80FFFFFF060060D9
:100D9000060060060060060060060060060060064F
:100DA0000060060060C01E00F007803C01E00F00FC
:100DB0007803C01E00F007803C01E00F80EE0E3F7C
:100DC000E07C006006C01DC031806301C7030606D9
:100DD0000C1C1C30186031C073006600DC01F0018F
:100DE000E003C00700E0301D80E0760781D81E06D2
:100DF000707C18C1B0E30CC38C330C38C630671854
:100E0000C198670661D81D83603C0D80F03E03C029
:100E1000700F01C0180700700E6038E060E1C0C3B9
:100E200001CC01F801E0038007801F003300E703D5
:100E300086060E1C0E700CC01C6006700E301C382E
:100E4000181C380C300E70066003C003C00180010E
:100E500080018001800180018001800180FFFFFF0F
:100E6000C00E00E00E0060070070070030038038FD
:100E700003801801C01C00FFFFFFC0FFCCCCCCCC0E
:100E8000CCCCCCCCCCCFF081810206040818102049
:100E900060408181020604FF33333333333333330D
:100EA000333FF00C0E0586C321198C83C180FFFEF1
:100EB000E38C303F07F8E1CC0C00C01C3FCF8CC066
:100EC000CC0CE3C7EF3C70C00C00C00C00C00CF8A9
:100ED000DFCF0EE07C03C03C03C03C03E06F0EDFBD
:100EE000CCF81F0FE71B83C0300C0300C038371C41
:100EF000FE1F0000600C018030063CCFFB8FE0F845
:100F00000F01E03C0780F83B8F3F63CC1F07F1C720
:100F1000703C07FFFFFE00C01C0DC31FE1F03BD873
:100F2000C67FEC6318C6318C63001E67FDC7F07C7A
:100F30000780F01E03C07C1DC79FB1E600C03E0EB7
:100F40007FC7E0C0300C0300C033CDFBC7E0F03CEE
:100F50000F03C0F03C0F03C0F030F03FFFFFF03351
:100F60000003333333333333333FE0C018030060BF
:100F70000C018330C630CC1B83F0770C618E30E6D9
:100F80000CC1D818FFFFFFFFF0CF1F6FDFFC78FC0C
:100F9000183C0C1E060F03078183C0C1E060F030CF
:100FA00078183C0C18CF37EF1F83C0F03C0F03C0FC
:100FB000F03C0F03C0C01F07F1C7707C0780F01E14
:100FC00003C07C1DC71FC1F0CF8DFCF0EE06C03CF6
:100FD00003C03C03C03E07F0EFFCCF8C00C00C0008
:100FE000C0001E67FDC7F07C0780F01E03C07C1D9B
:100FF000C79FF1E600C018030060CF7F38C30C30F4
:10100000C30C30C03E1FEE1B00C03C07F03E01F099
:101010003E1DFE3E006319FFB18C6318C631E7C068
:10102000F03C0F03C0F03C0F03C0F07E3DFB3CC022
:10103000E0660660670C30C30C3981981981F00FA7
:1010400000E00E00C1C1B0E1D870CC2C6636319BF7
:1010500018CD98646C16360F1A078F038380C1C0B1
:1010600060EE18C60CC1F01C0180781B0330C7303D
:101070006606E06C0D8338630C630E60CC1B036066
:101080003C0700E0180300E0780E00FFFFF0180CAA
:10109000070381C06030180E03FFFFC019CC63182E
:1010A000C631998618C6318C631C60FFFFFFFFFFB5
:1010B000FCC718C6318C630C33318C6318C67300BF
:1010C000703E09E41F0380000000000600010000DC
:1010D00002100803F1040006060A01F109000C10D1
:1010E0000C00F121000A120C01F038001211140159
:1010F000F05F0011101301F1810002060501F18378
:101100000006140801F1920006140801F1A100087C
:101110000A0C03F2AB000B0B0E01F6BB0003060634
:1011200002FEBE0006010801FBBF0002030602FE2C
:10113000C00007110700F0CF000A110C01F0E50014
:1011400006110C03F0F2000A0F0C01F205010A105F
:101150000C01F119010A100C01F12D010A110C0109
:10116000F043010A110C01F059010A100C00F16D55
:10117000010A110C01F083010A120C01F09A01021C
:101180000C0602F59D01040F0602F5A5010C0D0EDB
:1011900001F4B9010C060E01F8C2010C0D0E01F5A7
:1011A000D60108110B02F0E70111101502F1090236
:1011B00011101100F12B020C100F01F143020F105E
:1011C0001001F1610210101100F181020E100F00E8
:1011D000F19D020E100E00F1B90210101101F1D9AB
:1011E0000210101100F1F90206100801F1050308C0
:1011F000100900F1150310101101F135030F100F44
:1012000000F1530313101501F1790310101101F1CE
:1012100099030F101101F1B7030C100E00F1CF0369
:1012200010141101F1F7030F101000F115040B1049
:101230000D00F12B040F100F00F1490410101101E3
:10124000F1690411101100F18B0416101700F1B7A9
:101250000411101100F1D90410101100F1F9040E5D
:10126000100F01F1150505140802F12205071107F9
:1012700000F0310505140801F13E050A090B01F1E2
:101280004A050C010C00034C0505040600F14F054E
:101290000A0B0A01F65D050A110C01F07305080B33
:1012A0000B01F67E050A110C01F094050A0B0B01E7
:1012B000F6A20509110900F0B6050C100B00F6CED8
:1012C000050B110C00F0E60505100700F1F005060E
:1012D000150800F100060B110C01F01806051106A7
:1012E00000F02306120B1300F63C060B0B0C00F665
:1012F0004C060A0B0C01F65A060B100C00F6700691
:101300000A100C01F68406080B0800F68F06070B7E
:101310000901F69906060D0701F4A3060A0B0C0154
:10132000F6B1060B0B0B00F6C106100B1000F6D73A
:10133000060B0B0C00F6E7060B100B00F6FD060A79
:101340000B0A00F60B0705150C02F0190701110531
:1013500002F01C0705150C05F12A070C030C00FA16
:10136000FFFEA83FCF3CF38A200C40C408408C0805
:10137000C7FF188188108108FFE11831031031027E
:10138000100407C65B12C4B10F41F01E01E05813F0
:1013900084E13C4F963F010000040383039F81C218
:1013A00020609038240C12030D00C6479E231009BC
:1013B0008404E10330408C20430810C4081E00035D
:1013C000C002300308018400C4007CF81C381E08E9
:1013D000330C31C41074183A0C0E070383C3E27E39
:1013E0003EFFA0042108610C30C30C30C10418205A
:1013F00040818102041820830C30C30C3086108495
:101400002030B3D754387CD3303010040080100221
:101410000041FFC100200400801000DF9500FCFCAB
:10142000060C1060C1060C1060C1060C1060C01ED6
:101430000CC61986C0B03C0F03C0F03C0F03C0D8E7
:101440006618CC1E0011C30C30C30C30C30C30C363
:101450000CFC1E18C41A06018060100C020100C0AA
:101460006030181FF81E18E81806010080F07E038F
:10147000C0700C0300C06E11F80100C0702C0B048A
:10148000C2308C4320C833FF0300C0300C0003F18E
:101490000040180F80F80E01C0300C0300C0201B64
:1014A0008C7C0001C3C1C0C070180EF3CEC1F03CEB
:1014B0000F03C0D83608C61E003FD038080601808A
:1014C00040100C020080201004010080201F186CC6
:1014D0000F03C0F86730F01E09E63B07C0F03C0D73
:1014E000861F001E08C61B02C0F03C0F03E0DC7321
:1014F000EC060180C07038381800FC003FCCC000FA
:10150000000677124000000701E0781E0700C00FB8
:10151000003C00F003C0070010FFF00000000000D6
:101520000FFF800E003C00F003C00F00300E07815B
:10153000E0780E0000007C8683C30303060C0808D5
:101540001010000030303003F0060606008600263A
:101550000ED30CC70C638431C618E308718C4CC6DB
:10156000463DC18000301007F00080006000700030
:1015700038002E00130019C008600438040C03FF63
:1015800003038100E18070C03DF03FFF830C3063B6
:101590000630630630C3F030E306303303303307E0
:1015A00030EFFC07E2383CC03B003600380030002A
:1015B0006000C0018003000300060006004703032B
:1015C000F8FFC03078301C300E3006300330033066
:1015D0000330033003300330063006300C3078FF20
:1015E000C0FFFCC033004C003000C043030FFC3090
:1015F00030C043000C003008C02303BFFEFFFCC016
:1016000033004C003000C043030FFC3030C04300B7
:101610000C003000C003003F0007E41C3C300C60AD
:101620000C6004C000C000C03FC00CC00CC00C6007
:101630000C600C300C1C1C07E0FC3F300C300C30F4
:101640000C300C300C300C3FFC300C300C300C30BB
:101650000C300C300C300CFC3FFCC30C30C30C3095
:10166000C30C30C33F3F0C0C0C0C0C0C0C0C0C0CC2
:101670000C0C0CC8F0FCFE30383020304030803389
:101680000036003E003700338031C030E03070302B
:1016900038303CFC7FFC006000C001800300060085
:1016A0000C00180030006000C00180030026008C90
:1016B000077FFEF801E70070E00E1E03C2C0585C11
:1016C0001B098261384C27118472308EC610D0C23B
:1016D0001E1841831C3067C43FF01F780E3C043E47
:1016E000042E042704238423C421E420E42074204E
:1016F0003C201C200C700CF80407C03060C0630054
:101700006600D800F001E003C007800F001B0066F0
:1017100000C603060C03E0FF830E3073033033036F
:1017200030630E3F8300300300300300300FC00FE2
:10173000E018303018600C600CC006C006C006C04F
:1017400006C006C006600C600C3018183007C003D5
:10175000C001E00078001FFF8061C0C1C181830328
:1017600006060C1C18703F806700C7018F030F0628
:101770000E0C0E7E0F1F461981302702F00F00F865
:1017800007C03803C0340680DC327CFFFF860E0CB5
:101790001C181030006000C00180030006000C001F
:1017A000180030006000C007E0FC1F300E3004302D
:1017B0000430043004300430043004300430043089
:1017C00004300418081C1807E0FE0F9C030E018368
:1017D0000081C040604038200C300710019800E8BC
:1017E0000034001E00060003000100FCFC3DE1C0C7
:1017F000638301860E041C1810707080C3C2038BB3
:1018000008066E401D1900747800E1E00383800E25
:101810000C0010100040407F1F9E03070301C3000F
:10182000710019000F00038001E001B0019C0087E6
:101830000081C080E0C079F87FFE1F780C38081C5A
:10184000180E100620076003C0018001800180018E
:101850008001800180018007E07FFB00C8072038FD
:1018600001C007003801C007003801C00E0038056C
:10187000C03E01BFFEFE318C6318C6318C6318C6B2
:1018800031F0C1810306040C1810306040C181039F
:1018900006F8C6318C6318C6318C6318C7F00C0784
:1018A0000160D82318C41B0680C0FFF0C70C303E6F
:1018B000318C300C0307C6330CC331C7B82038064F
:1018C0000180601806F1C661D8360D8360D82619EC
:1018D000843E001E2363C0C0C0C0C0E1723C0080D3
:1018E000E01806018061D88E61B06C1B06C1B06E35
:1018F00019CE3DC01E08E41BFEC0300C0381609C65
:1019000041E00F08C406030181F06030180C0603A3
:101910000180C060FC001F031F60C60C60C3181F5D
:1019200002004007FC402402C02C04E083F0301E7B
:1019300000C0180300600DE1CE30C618C318630C58
:10194000618C318679E031800009C6318C6318DF03
:101950000C30000031C30C30C30C30C30C30F2F03B
:10196000201C0180300600C018FB08620C81E03E9C
:1019700006E0CE18C30EF3E0138C6318C6318C63F7
:1019800018C6F8F78F0E3CE30C18C30630C18C3034
:10199000630C18C30630C18C30679E3CF78718C3B0
:1019A00018630C618C318630C619E7801E18E41B61
:1019B00003C0F03C0F03609C41E0778718C3983365
:1019C0000660CC198330C710DC180300600C07E0F8
:1019D0001E8CE61B06C1B06C1B06E198E3D806011D
:1019E0008060181F377B30303030303030307C7BB7
:1019F0000E1C1E0F07C3878AE0218F98618618612D
:101A0000861938E3986619866198661986619CE3A1
:101A1000DCF8EE08C1184188320340680600C010A7
:101A200000F3E7618370C230C230C4196419680ED4
:101A3000380E380C300410FBC630640F00C00C03A5
:101A4000C098218C3BCF80F8EE08C1184188310343
:101A500040680600C008020040101E03807F90E02E
:101A600030180E0301C0E0305C3FF8198C6318C6D3
:101A700031B06318C6318C6180FFFF80C318C63156
:101A80008C6306C6318C6318CC0038066241C000F6
:101A9000000000003E5B4F5B3E3E6B4F6B3E1C3ECA
:101AA0007C3E1C183C7E3C181C577D571C1C5E7FDE
:101AB0005E1C00183C1800FFE7C3E7FF001824185D
:101AC00000FFE7DBE7FF30483A060E262979292692
:101AD000407F050507407F05253F5A3CE73C5A7F7C
:101AE0003E1C1C08081C1C3E7F14227F22145F5FD2
:101AF000005F5F06097F017F006689956A6060600C
:101B0000606094A2FFA29408047E040810207E2046
:101B10001008082A1C08081C2A08081E101010109B
:101B20000C1E0C1E0C30383E3830060E3E0E0600E1
:101B30000000000000005F00000007000700147FA5
:101B4000147F14242A7F2A1223130864623649560C
:101B500020500008070300001C2241000041221C05
:101B6000002A1C7F1C2A08083E08080080703000EC
:101B70000808080808000060600020100804023E01
:101B80005149453E00427F40007249494946214142
:101B9000494D331814127F1027454545393C4A49B1
:101BA00049314121110907364949493646494929F0
:101BB0001E00001400000040340000000814224100
:101BC0001414141414004122140802015909063E89
:101BD000415D594E7C1211127C7F494949363E4184
:101BE0004141227F4141413E7F494949417F0909A5
:101BF00009013E414151737F0808087F00417F4140
:101C0000002040413F017F081422417F4040404076
:101C10007F021C027F7F0408107F3E4141413E7FCE
:101C2000090909063E4151215E7F091929462649C5
:101C300049493203017F01033F4040403F1F20409C
:101C4000201F3F4038403F631408146303047804A6
:101C5000036159494D43007F41414102040810206E
:101C6000004141417F0402010204404040404000E5
:101C70000307080020545478407F284444383844EF
:101C8000444428384444287F385454541800087E6B
:101C9000090218A4A49C787F0804047800447D40BD
:101CA000002040403D007F1028440000417F40005C
:101CB0007C047804787C080404783844444438FC74
:101CC0001824241818242418FC7C080404084854F8
:101CD00054542404043F44243C4040207C1C2040B5
:101CE000201C3C4030403C44281028444C909090AC
:101CF0007C4464544C4400083641000000770000E6
:101D0000004136080002010204023C2623263C1E44
:101D1000A1A161123A4040207A38545455592155B6
:101D200055794122545478422155547840205455D5
:101D300079400C1E52721239555555593954545424
:101D40005939555454580000457C410002457D42A4
:101D50000001457C407D1211127DF0282528F07C81
:101D6000545545002054547C547C0A097F4932491B
:101D70004949323A4444443A324A4848303A414167
:101D8000217A3A42402078009DA0A07D3D42424207
:101D90003D3D4040403D3C24FF2424487E4943666D
:101DA0002B2FFC2F2BFF0929F620C0887E0903204A
:101DB000545479410000447D413048484A3238400B
:101DC00040227A007A0A0A727D0D19317D2629296E
:101DD0002F28262929292630484D40203808080870
:101DE0000808080808382F10C8ACBA2F102834FA91
:101DF00000007B000008142A142222142A1408551B
:101E000000550055AA55AA55AAFF55FF55FF0000D9
:101E100000FF00101010FF00141414FF001010FF3A
:101E200000FF1010F010F0141414FC001414F7004C
:101E3000FF0000FF00FF1414F404FC141417101F1B
:101E400010101F101F1414141F00101010F00000A9
:101E500000001F101010101F10101010F0100000C4
:101E600000FF101010101010101010FF10000000D4
:101E7000FF140000FF00FF00001F10170000FC040B
:101E8000F414141710171414F404F40000FF00F7EE
:101E900014141414141414F700F714141417141051
:101EA000101F101F141414F4141010F010F0000080
:101EB0001F101F0000001F14000000FC140000F0A1
:101EC00010F01010FF10FF141414FF141010101F46
:101ED00000000000F010FFFFFFFFFFF0F0F0F0F057
:101EE000FFFFFF0000000000FFFF0F0F0F0F0F3874
:101EF00044443844FC4A4A4A347E02020606027EC2
:101F0000027E0263554941633844443C04407E20CC
:101F10001E2006027E020299A5E7A5991C2A492ADD
:101F20001C4C7201724C304A4D4D3030487848306C
:101F3000BC625A463D3E494949007E0101017E2A64
:101F40002A2A2A2A44445F444440514A4440404497
:101F50004A51400000FF0103E080FF000008086BC9
:101F60006B083612362436060F090F0600001818C3
:101F70000000001010003040FF0101001F01011E91
:101F800000191D1712003C3C3C3C00000000000002
:101F9000002200250028002B002E00310034000212
:101FA000010000050108010B0105050505070508ED
:101FB000080808020202020A0A08080404040401CC
:101FC00001010101010101030303030303030304EE
:101FD0000707070C0C0C0C0C0C0C0C02020202067E
:101FE000060606060606060B0B0B0B0B0B0B0B016E
:101FF000021020200808102040102040800201021A
:1020000001080402010102040810204080804020E1
:10201000100804020180040201804020100804021C
:10202000010804020101020408102040800102049A
:10203000081020408000000A0B02090C0D0E080752
:102040000304010000000000000000000000000088
:102050000000000000000000000000000000000080
:10206000001211100000000000000000000000003D
:10207000000000000000000000000011007F962911
:102080000001007F9628003A0155C0021010C101DE
:1020900041C50400228040360168B00100B102B0A1
:1020A00011B40102B60302023BB701C63A0155F76B
:1020B00004A9512C82B701C6E808408A00002919FA
:1020C000A533C0020D0DC1024300C20100C50400CA
:1020D000480048B40100B60302023BE00F0F211C88
:1020E0000B0E08499838091103141000E10F0F2F47
:1020F0002B0C0E06477637071104231E00B0010093
:10210000B30402000000B40100D003074218D10359
:10211000000710D2020102D3020102D4020102C060
:1021200005123B000211C103101088C50103C6014E
:1021300002C80C003236450616377577540C00CCB1
:102140000100F603010100CF03008130ED046403B8
:102150001281E803851078CB05392C003402F70191
:1021600020EA020000B00100B102001BB40100C06F
:102170000121C10111C5023F3CC701B5360148F23A
:102180000100260101E00F0F26240B0E0954A8467A
:102190000C17090F0700E10F00191B0410072A474D
:1021A0003903060630380F360100B80101C0010EB0
:1021B000B00100C10410100202C006003500000189
:1021C00002C50104D2020104CA0100EA0180B90378
:1021D000FF83577F967F96B60125C0065050013C7D
:1021E0001E08B4070240002A2A0D787F01F20B1660
:1021F00016030808080810041616FD03110235B26C
:10220000050C0C003333B70135BB012BC00104C2F0
:102210000201FFC30111C40120C6010FD002A4A115
:10222000E00ED000050E150D37434709151216199B
:10223000E10ED000050D0C062D44400E1C18161999
:102240003A01557F0A06000700B1020012B40102EC
:10225000B60400202700CA0101CB0103C001137F8F
:1022600014C501CCC60100C70104C80103CC010696
:10227000CD011CF9021515F3030A020AF603011039
:1022800000FA00FB00B00103E2013FC00122E201BD
:1022900000B00100C0010AB0010000000000000011
:1022A00000000000000000000000FFFF0F0000041D
:1022B0000062080008080003000C01030B5A020327
:1022C0000609030317100403002305030017060380
:1022D00009630703090C08030C10090332221000DC
:1022E000160011000101120000001300010000019E
:1022F0003003010137020301000D80020061020179
:10230000B0C1FFFF32000100000102000001030024
:102310003010090001000C000000900000800F0048
:102320000000100200001102EF0012020000130270
:102330008F01000500000105000002055F00010497
:10234000010004040000FFFF320007000001FFFF4E
:102350003200000200000102000000000000000046
:1023600000000000000000000100A4000100FFFFC9
:102370000A0060000027080008083000140231003D
:102380001537320004063300160E340011223500D2
:10239000001536000785370007143800031439008C
:1023A00020009000150010001004110037022900D1
:1023B00046002A00460007000000120089011300B1
:1023C0000011FFFF96001200B90101000001020098
:1023D000000203003010090001000A0000000D0097
:1023E00000000E003000610001006A000000800063
:1023F00000008100000082005F0092000001930055
:102400000107FFFF500007000001E500F078010020
:10241000000102000002030030100400000005006B
:10242000000008000702090000000A0000000C007C
:1024300000000D0000000F0000001000000011005F
:102440000700120000001300000007000100FFFF5A
:10245000C8001000901611002702FFFF3200120082
:102460000D00FFFF32001300001229000A002B00AC
:102470000D00FFFF320020000000210000003000AE
:10248000000031000404320003003500050436006A
:1024900008083700070438000303390007073C0029
:1024A00004053D00080860000027610001006A0083
:1024B0000000800000008100000082000000830016
:1024C00000008400000085000000900010009200D1
:1024D000000007003301E50000800000010001005A
:1024E0000001020000070300301004000000080093
:1024F0000202090000000A0000000C0000000D00AC
:1025000000000F0000001000000011000700120082
:10251000000013000000FFFF32001000B017110090
:102520000700FFFF0A0012003A01FFFF0A00130034
:10253000001A29000C00FFFF0A00300000003100E3
:102540000505320004003500060036000707370095
:10255000050138000200390007073C0004073D0070
:102560000708600000A7610001006A000000210068
:1025700000002000000080000000810000008200B8
:10258000000083000000840000008500000090002F
:1025900010009200000093000300950010019700C6
:1025A00000009800000007007301FFFF32000100E7
:1025B00000010200000703003010080002030900B8
:1025C00000000A00080010000000110005001200C1
:1025D000000013000000FFFF64001000B012FFFFB6
:1025E000320011000700FFFF320012008C001300C0
:1025F000001729002000FFFF3200300000003100EA
:1026000006013200010135000601360003023700E1
:10261000000038000707390004023C0006013D00B5
:102620000301600000A76100010090003000070076
:102630003301FFFF3200150030009A001000110036
:102640002000100028341200020013003810FFFF91
:10265000280012001200FFFF280010002034130091
:102660004530FFFF46003000000031000204320018
:10267000070333000403340004003500010436006E
:10268000070737000503380010063900100601005F
:1026900000010200000303003010080008080A00CF
:1026A0000800600000276100010090003E019200D8
:1026B000000193000001A0000030A30010000700FB
:1026C0000100070021000700230007003300070076
:1026D000330111001A001200213113006C001400A4
:1026E000494210000008FFFF0A0011001A01FFFF15
:1026F0000A0011001A03FFFF0A0011001A07FFFF6A
:102700000A0011001A0FFFFF0A0011003A0FFFFF25
:102710001E00010028010200000103003010070024
:102720001210080003030B0000110C0000000F0042
:10273000011815002000500001015100030652004D
:102740000804530000005400050655000604560016
:10275000030357000303580010005900001007003E
:102760001200FFFF280007001300070017002A01CE
:10277000E400300039003216097D0620007E001D7D
:102780006013C71020007E001D00A2365E40112499
:102790001FBECFEFD1E2DEBFCDBF00E00CBF25E012
:1027A000A8E4B3E001C01D92A030B207E1F713E046
:1027B000A0E0B2E0E4E2FAE800E00BBF02C007905C
:1027C0000D92A834B107D9F713E1C6ECD3E100E0CC
:1027D00006C021970109802FFE010E949E42C53C40
:1027E000D10780E00807A9F70E945A370C940145E9
:1027F0000C940000DC0114962D913C911597232B2D
:1028000041F0ED91FC9181E09081992319F080E0F5
:10281000089581E00895089508950895AF92BF92B4
:10282000CF92DF92EF92FF920F931F93CF93DF939C
:102830006C017B018B01040F151FEB015E01AE18CB
:10284000BF08C017D10759F06991D601ED91FC91ED
:102850000190F081E02DC6011995892B79F7C5010A
:10286000DF91CF911F910F91FF90EF90DF90CF906C
:10287000BF90AF900895FC01538D448D252F30E01B
:10288000842F90E0821B930B541710F0CF9608957D
:1028900001970895FC01918D828D981761F0A28DAA
:1028A000AE0FBF2FB11D5D968C91928D9F5F9F7370
:1028B000928F90E008958FEF9FEF08952FB7F894CF
:1028C0008091BF039091C003A091C103B091C20356
:1028D0002FBF8093CC039093CD03A093CE03B093EE
:1028E000CF0384EC93E0D6DF97FF26C02FB7F89490
:1028F0008091BF039091C003A091C103B091C20326
:102900002FBF4091CC035091CD036091CE037091C5
:10291000CF03841B950BA60BB70B4091C8035091B6
:10292000C9036091CA037091CB0384179507A6076A
:10293000B707B8F28FEF9FEF0895FC01918D828D5C
:10294000981731F0828DE80FF11D858D90E0089584
:102950008FEF9FEF0895FC01918D228D892F90E0DC
:10296000805C9F4F821B91098F739927089584EC97
:1029700093E0F1DF21E0892B09F420E0822F089514
:10298000FC01A48DA80FB92FB11DA35ABF4F2C91E4
:10299000848D90E001968F739927848FA689B789DB
:1029A0002C93A089B1898C91837080648C93938DD2
:1029B000848D981306C00288F389E02D80818F7D75
:1029C00080830895EF92FF920F931F93CF93DF932D
:1029D000EC0181E0888F9B8D8C8D98131AC0E8895B
:1029E000F989808185FF15C09FB7F894EE89FF892A
:1029F0006083E889F98980818370806480839FBFC8
:102A000081E090E0DF91CF911F910F91FF90EF90C7
:102A10000895F62E0B8D10E00F5F1F4F0F731127D7
:102A2000E02E8C8D8E110BC00FB607FCFACFE88913
:102A3000F989808185FFF5CFCE01A2DFF2CFEB8D42
:102A4000EC0FFD2FF11DE35AFF4FF0829FB7F89472
:102A50000B8FEA89FB8980818062D0CFCF93DF938F
:102A6000EC01888D8823B1F0AA89BB89E889F989AE
:102A70008C9185FD03C0808186FD0CC00FB607FCDC
:102A8000F7CF8C9185FFF2CF808185FFEDCFCE010E
:102A900077DFEACFDF91CF91089580E090E0892B36
:102AA00021F065DF81110E94000080E090E0892B19
:102AB00049F080E090E0892B29F00E94000081110C
:102AC0000E94000080E090E0892B49F080E090E0D7
:102AD000892B29F00E94000081110E94000080E0F3
:102AE00090E0892B49F080E090E0892B29F00E944A
:102AF000000081110C9400000895282F30E0F901A6
:102B0000EB5CFF4D9491F901E151F04E4491275552
:102B1000304EF9012491222309F435C0992311F193
:102B200091509231F8F4E92FF0E08827E556FA4EFB
:102B30008F4F0C949E42CC15D015AD15C415C815F9
:102B4000B215D315D915DD15E315E715EB15F115FC
:102B5000F515B215F915FF150316809180008F77D2
:102B600080938000E22FF0E0EE0FFF1FE157F04E60
:102B7000A591B4918FB7F894EC91611148C040953C
:102B80004E234C938FBF0895809180008F7DE8CFB6
:102B900080918000877FE4CF84B58F7784BDE2CFBA
:102BA00084B58F7DFBCF8091B0008F778093B0008C
:102BB000D9CF8091B0008F7DF9CF809190008F7731
:102BC00080939000CFCF809190008F7DF9CF80913E
:102BD0009000877FF5CF8091A0008F778093A00031
:102BE000C1CF8091A0008F7DF9CF8091A000877F19
:102BF000F5CF809120018F7780932001B3CF809112
:102C000020018F7DF9CF80912001877FF5CF4E2B5A
:102C1000B8CF3FB7F8948091BA039091BB03A091CD
:102C2000BC03B091BD0326B5A89B05C02F3F19F08A
:102C30000196A11DB11D3FBFBA2FA92F982F88273C
:102C4000BC01CD01620F711D811D911D42E0660F17
:102C5000771F881F991F4A95D1F708958F929F92E9
:102C6000AF92BF92CF92DF92EF92FF926B017C0105
:102C7000D0DF4B015C01C114D104E104F104B1F0D7
:102C8000C8DF681979098A099B09683E7340810584
:102C9000910588F321E0C21AD108E108F10888EE15
:102CA000880E83E0981EA11CB11CE5CFFF90EF9029
:102CB000DF90CF90BF90AF909F908F90089520911C
:102CC0006F03260F3327331F21323105ECF4209197
:102CD0009303FC0190E080E0243069F082E00895E5
:102CE000A0916F032191AC01415B5C4FA40FB52F04
:102CF000B11D2C930196861798F380916F03680F8E
:102D000060936F0380E0089581E008958FEF9FEF57
:102D100008958FEF9FEF08958091480390E091957B
:102D2000819591090895CF93DF93CB01EA01642F38
:102D3000C6DFCE01DF91CF910895CF93DF931F922D
:102D4000CDB7DEB7698361E0CE010196B8DF81E0DF
:102D500090E00F90DF91CF9108950F931F93CF9341
:102D6000DF93EC018B01FE018491319664912296F0
:102D70008F3791F470E090E080E070DF60E070E009
:102D80006E5F7F4F061B170B1016110664F3DF9161
:102D9000CF911F910F9108958B988A98909102017D
:102DA000977890930201A5989EB1977C9EB9409127
:102DB000020190E09C0155E0220F331F5A95E1F784
:102DC0002076242B209302014EB19C01220F331F49
:102DD000220F331F2073242B2EB944B39C01220FE2
:102DE000331F2072242B24BB4EB19C0135952795AF
:102DF000359527952870242B2EB920910201A3E048
:102E000095958795AA95E1F78871822B80930201A9
:102E10008998899A50E040E0461708F045C0FE01C5
:102E2000E40FF51FE4918A9A8091020187788093DC
:102E30000201A5988EB1877C8EB9709102018E2F08
:102E400090E09C01E5E0220F331FEA95E1F7207640
:102E5000272B209302017EB19C01220F331F220FEA
:102E6000331F2073272B2EB974B39C01220F331FFD
:102E70002072272B24BB7EB19C0135952795359573
:102E800027952870272B2EB9E091020123E0959514
:102E900087952A95E1F788718E2B80930201899896
:102EA000899A4F5F5F4FB8CFC60FD11D8B9A67CFFE
:102EB0008B988A9820910201277820930201A59887
:102EC0002EB1277C2EB970910201292F30E0F90133
:102ED000A5E0EE0FFF1FAA95E1F7E076E72BE09360
:102EE00002017EB1F901EE0FFF1FEE0FFF1FE0732D
:102EF000E72BEEB974B3F901EE0FFF1FE072E72B79
:102F0000E4BB7EB1F901F595E795F595E795E87095
:102F1000E72BEEB970910201E3E035952795EA952C
:102F2000E1F72871272B209302018998899A209133
:102F30000201277820930201A5982EB1277C2EB993
:102F4000709102019C01F5E0880F991FFA95E1F755
:102F50008076872B809302017EB1C901880F991F6B
:102F6000880F991F8073872B8EB974B3C901880F9E
:102F7000991F8072872B84BB7EB1C9019595879577
:102F8000959587958870872B8EB980910201F3E023
:102F900035952795FA95E1F72871282B20930201A2
:102FA0008998899A8A9AFA01615008F43EC0819101
:102FB00090910201977890930201A5989EB1977C19
:102FC0009EB94091020190E09C0155E0220F331F11
:102FD0005A95E1F72076242B209302014EB19C01F3
:102FE000220F331F220F331F2073242B2EB944B31B
:102FF0009C01220F331F2072242B24BB4EB19C0155
:1030000035952795359527952870242B2EB9209135
:10301000020133E0959587953A95E1F78871822B07
:10302000809302018998899ABFCF8B9A08958B98D3
:103030008A98E2E0F1E0208127782083A5982EB1DC
:10304000277C2EB9A081292F30E0A901B5E0440FDB
:10305000551FBA95E1F740764A2B4083AEB1A901DE
:10306000440F551F440F551F40734A2B4EB9A4B34C
:10307000A901440F551F40724A2B44BBAEB1A901B0
:10308000559547955595479548704A2B4EB94081BF
:1030900053E0359527955A95E1F72871242B208325
:1030A0008998899A208127782083A5982EB1277C3A
:1030B0002EB940819C01A5E0880F991FAA95E1F7E0
:1030C0008076842B80834EB1C901880F991F880FA9
:1030D000991F8073842B8EB944B3C901880F991F3F
:1030E0008072842B84BB4EB1C901959587959595C7
:1030F00087958870842B8EB98081B3E035952795AC
:10310000BA95E1F72871282B20838998899A8A9AA1
:10311000808187788083A5988EB1877C8EB9408125
:10312000872F90E09C0155E0220F331F5A95E1F75D
:103130002076242B20834EB19C01220F331F220FB7
:10314000331F2073242B2EB944B39C01220F331F4D
:103150002072242B24BB4EB19C01359527953595C3
:1031600027952870242B2EB92081A3E0959587956B
:10317000AA95E1F78871822B80838998899A80814A
:1031800087788083A5988EB1877C8EB94081CB01EA
:103190009B01B5E0220F331FBA95E1F72076242B6F
:1031A00020834EB19B01220F331F220F331F207348
:1031B000242B2EB944B39B01220F331F2072242BE2
:1031C00024BB4EB19C0135952795359527952870E0
:1031D000242B2EB92081A3E095958795AA95E1F738
:1031E0008871822B80838998899A8B9A089581E0CF
:1031F0008093C303E1E0F1E08081886780839D9A3A
:103200008DB188638DB9809A819A829A839A849AC3
:103210008B9A889A899A8C9A62E370E080E090E0B9
:103220001DDD8C9864E670E080E090E017DD8C9AFC
:1032300064E670E080E090E011DD70E060E080EB3B
:1032400090E0F5CEEF92FF920F931F93CF93DF9311
:10325000EC01E62E8091C303811101C0C8DF8B9879
:103260008A9880910201877880930201A5988EB197
:10327000877C8EB980910201809302018EB18EB954
:1032800084B384BB8EB18EB9809102018093020118
:103290008998899A80910201877880930201A59884
:1032A0008EB1877C8EB920910201CE0115E0880F86
:1032B000991F1A95E1F78076822B809302012EB137
:1032C000CE01880F991F880F991F8073822B8EB9AA
:1032D00024B3CE01880F991F8072822B84BB2EB13C
:1032E000CE0195958795959587958870822B8EB997
:1032F0008091020153E0D595C7955A95E1F7C871C1
:10330000C82BC09302018998899A8A9A80910101F9
:103310008778809301019D988DB1877C8DB961E09C
:1033200070E080E090E09ADC61E070E080E090E0A6
:1033300095DC889A889888988898D09100011CB16B
:1033400002B3CCB1F0900001889A61E070E080E0B7
:1033500090E084DC889A8898889888984091000149
:103360005CB1E2B39CB1F0910001889AEA946FEFEE
:10337000E612DACF889A8B9A809101018867809350
:1033800001019D9A8DB188638DB984E0C89F900139
:1033900011242072332788E0F89EB0011124607C4C
:1033A0007727262B602F70E07595679560717727DA
:1033B000262B612F70E075956795759567956C70F4
:1033C0007727262B6D2F70E0B5E075956795BA9538
:1033D000E1F763707727262B64E0969FC0011124E4
:1033E000807298E0F99FB0011124607C862BE695ED
:1033F000E0718E2B569556955C70852B50E0C5E09C
:1034000055954795CA95E1F74370842B922FDF912C
:10341000CF911F910F91FF90EF9008950F931F93FD
:10342000CF93DF938C0160E00DDFEC0161E0C80118
:1034300009DF8C01BE0190E080E0CB017727662791
:1034400030E020E0602B712B822B932BDF91CF910A
:103450001F910F910895FF920F931F93CF93DF93C6
:103460008C0160E0EFDEEC0161E0C801EBDEF82EDC
:1034700062E0C801E7DEAE0170E060E0742F66270D
:103480005527442700E030E020E0402B5F29622BE5
:10349000732B292F30E0C901B0E0A0E08A019B0125
:1034A000082B192B2A2B3B2BC901B801DF91CF9197
:1034B0001F910F91FF9008950F931F93CF93DF9368
:1034C000EC018B01FE0185919491FE0132962496C8
:1034D000659174918F3F980769F490E080E0BEDBBE
:1034E00004501109101611066CF3DF91CF911F9152
:1034F0000F9108959CDDF4CFFC01262F358D868D2C
:1035000082958170982F9627692F70E072A361A32E
:1035100030FF0BC0821306C080E290E050E040E034
:1035200060E0C6CC81E290E0F9CF878D90A183392D
:1035300027E7920741F058F4843521E0920791F093
:1035400080329445B9F4626081E094E012C0863222
:1035500023E99207C1F3893025EB9207A1F3853265
:10356000924941F4660F771F660F771F636187E00A
:1035700090E05DCD81E690E0FCCF8F929F92AF927C
:10358000BF92CF92DF92EF92FF920F931F93CF9350
:10359000DF9300D01F92CDB7DEB77C014B015A01FB
:1035A0006901FC01878D90A18732F3E99F0709F03B
:1035B0003EC0F7018689823089F5F0E2AF0EB11C7A
:1035C000005E1F4FF701858D80FF48C085A5998259
:1035D0008A82DB82CC82AE014F5F5F4F64E090E075
:1035E00067DCF70181A9B982AA821B830C83AE0133
:1035F0004F5F5F4F64E090E05BDC0F900F900F90A7
:103600000F90DF91CF911F910F91FF90EF90DF907E
:10361000CF90BF90AF909F908F900895833091F698
:1036200020E2820E911C80E2C80ED11CCBCF8632E4
:10363000954141F6F701868980FFC4CFC801841BFC
:10364000950B19F40F5F1F4FBDCF6217730709F079
:10365000B9CF6B01C80ED91E8A01B4CFB40187A1BE
:1036600090A5E5DCB501F70181A592A5E0DCC814C1
:10367000D90421F40A151B0509F4BFCFF701858D84
:1036800085FF08C0868980FF1AC0102F0027A02A56
:10369000B12A8501B401F70185A596A5C8DCB5015D
:1036A000F70181A992A9C3DCB601F70187A590A90A
:1036B000BEDCB801F70183A994A9B9DC9ECFDC2C4C
:1036C000CC248C289D286401E5CFAF92BF92CF9285
:1036D000DF92EF92FF920F931F93CF93DF93EC0152
:1036E0008091BE03882349F0C701880F991F8E730C
:1036F0009927E1ECEE22E82AF92A37FF05C0620F8C
:10370000731F319521953109260F371F77FF02C0AE
:1037100070E060E088859985281739070CF4C901A5
:103720006C01C61AD70A17FF05C0400F511F11952B
:1037300001951109040F151F57FF02C050E040E02A
:103740002A853B85021713070CF498015901A41A26
:10375000B50A8901015011099C0121503109CE019E
:103760000CDF8B988A985BA54CA580910201877825
:1037700080930201A5988EB1877C8EB96091020179
:10378000842F90E09C01F5E0220F331FFA95E1F7BA
:103790002076262B209302016EB19C01220F331F4D
:1037A000220F331F2073262B2EB964B39C01220FE6
:1037B000331F2072262B24BB6EB19C0135952795B3
:1037C000359527952870262B2EB92091020103E00C
:1037D000959587950A95E1F78871822B8093020170
:1037E0008998899A80910201877880930201A5982F
:1037F0008EB1877C8EB960910201852F942F9C0138
:1038000045E0220F331F4A95E1F72076262B2093BF
:1038100002014EB19C01220F331F220F331F207370
:10382000242B2EB944B39C01220F331F2072242B6A
:1038300024BB4EB19C013595279535952795287069
:10384000242B2EB920910201E3E095958795EA9506
:10385000E1F78871822B809302018998899A8A9A6C
:10386000CA14DB042CF09A2D8B2D5601C92ED82EAC
:103870008F2D99279C0145E0220F331F4A95E1F7D0
:103880002076AC01440F551F440F551F342F307361
:10389000AC01440F551F4072BC0175956795759535
:1038A0006795562F5870F3E095958795FA95E1F74F
:1038B0008871B701A5E0660F771FAA95E1F7962FEB
:1038C0009076B701660F771F660F771F6073F70159
:1038D000EE0FFF1F7E2F7072D701B595A795B59596
:1038E000A795A870E3E0F594E794EA95E1F7EE2D4B
:1038F000E871EE2E1C141D040CF043C0F501B091CC
:103900000201B778B0930201A598BEB1B77CBEB9E9
:10391000B0910201B22BB0930201BEB1B32BBEB97C
:10392000B4B3B42BB4BBBEB1B52BBEB9B0910201D8
:10393000B82BB09302018998899AB0910201B778A7
:10394000B0930201A598BEB1B77CBEB9B091020197
:10395000B92BB0930201BEB1B62BBEB9B4B3B72B2D
:10396000B4BBBEB1BA2BBEB9B0910201BE29B093AF
:1039700002018998899A319711F6E1E0CE1AD108AF
:10398000B9CF8B9A8D8D80FF08C08F8D98A186321C
:10399000954189F48E8980FF0EC00A851B850150F0
:1039A0001109288539852150310950E040E070E047
:1039B00060E0CE01E2DDDF91CF911F910F91FF908A
:1039C000EF90DF90CF90BF90AF900895EF92FF926D
:1039D0000F931F93CF93DF937C01E90177FD28C0FC
:1039E00057FD26C0FC01808591856817790704F58D
:1039F0008285938548175907DCF48091BE0388239C
:103A000041F0C901880F991F8E739927C17CC82B7B
:103A1000D92B8A019B01C701B0DDBE01F70183A547
:103A200094A5DF91CF911F910F91FF90EF90FFCA66
:103A3000DF91CF911F910F91FF90EF900895EF923A
:103A4000FF920F931F93CF93DF9300D000D000D04D
:103A50001F92CDB7DEB77C01862F8370F701868B6E
:103A6000962F917060FFEBC026813781F701318777
:103A70002087992309F4E6C024813581F701338733
:103A80002287823009F4E3C0833009F4E2C0813038
:103A900009F4DBC088E48A87F701258D368D30FF75
:103AA00003C08A8580588A8731FF04C08A8590E4E4
:103AB00089278A8733FF04C08A8598E089278A8707
:103AC000F701878D90A120FFF4C08431F8E69F07AD
:103AD00009F0C1C09A85892F88728A871F82892F31
:103AE00085958074282F2260892F90E09595879581
:103AF00080729927822B88878BE38987AE01495F83
:103B00005F4F63E086EB90E0D3D92AE230E0F70123
:103B100030A727A38BE290E092A781A74CE250E068
:103B200054A743A736A725A730AB27A792AB81ABF5
:103B300094AB83ABAE01465F5F4F61E086E390E0FC
:103B4000B7D98A8590E0F70194A383A3F70186890A
:103B500080FF1CC0858D968D92FD18C087A190A511
:103B600021A532A530A727A392A781A785A596A551
:103B700021A932A936A725A792AB81AB87A590A929
:103B800023A934A930AB27A794AB83ABF7010285F7
:103B9000138501501109208531852150310950E0EC
:103BA00040E070E060E0C701E8DCF7016681778102
:103BB000878D90A110E000E020E08732F3E99F07B5
:103BC00069F4F7012689225010E000E0223010F459
:103BD00000E210E020E230E0201B310BF701458DC0
:103BE00040FF20C119820A837B836C831D822E8350
:103BF000AE014F5F5F4F66E083E390E059D91982D1
:103C00000A83AE014F5F5F4F62E087E390E050D9D7
:103C1000F701858D80FF06C050E040E060E083E161
:103C200090E046D92A960FB6F894DEBF0FBECDBFFE
:103C3000DF91CF911F910F91FF90EF900895248114
:103C4000358114CF2681378119CF88E224CF88E9C6
:103C500022CF88EF20CF833629E1920749F08138BF
:103C600034E9930729F08131E5E19E0709F04DCF52
:103C70002A8527FF02C021602A872A8526FF02C0E5
:103C800022602A878336F9E19F0721F48A858F73A2
:103C90008A873BCF813824E9920719F48A858F728D
:103CA000F7CF8131954109F030CF8A858F7E806CC6
:103CB000EFCF2A85622F022E000C770B8339F7E7AE
:103CC0009F0761F008F041C08435E1E09E0709F4E8
:103CD00068C08032F4E59F0709F040C020E032E080
:103CE000F70130A727A321E032E032A721A722E085
:103CF00032E034A723A720E132E036A725A721E14F
:103D000032E030AB27A722E132E032AB21AB23E136
:103D100032E034AB23AB662770788632F3E99F0735
:103D200009F47DC08032944509F479C080E09AE6B8
:103D3000682B792B80E094E07AD96A85F4E06F9F54
:103D4000B00111246627717054C0863223E99207AE
:103D500029F2893035EB930709F4C0CF80E290E077
:103D6000F70190A787A381E290E092A781A782E262
:103D700090E094A783A780E590E096A785A781E5CA
:103D800090E090AB87A782E590E092AB81AB83E5B2
:103D900090E094AB83AB66277078776280E690E022
:103DA000CBCF87E390E0F70196A785A786E390E065
:103DB00090AB87A789E390E092AB81AB88E390E07A
:103DC00094AB83AB80E290E090A787A381E290E080
:103DD00092A781A782E290E094A783A766277270DA
:103DE0006862F4E02F9FC001112488279170682B2E
:103DF000792B81E090E01BD98A85682F70E075955A
:103E00006795759567956870772783FD7061606326
:103E1000F70174A363A383E090E009D997CE80E013
:103E200095E386CF8339F7E79F07B9F1E0F4803255
:103E300034E5930791F18338E7E79E0721F1843554
:103E40009140E1F4600F711F6150710981E390E0CE
:103E5000EED8B80182E390E0EAD870E060E083E356
:103E600090E0E5D8DFCE863223E99207B1F08930C1
:103E700035EB930791F08532924921F3F70161A167
:103E800072A1626003C0F70161A172A181E690E0B6
:103E9000CED8B8018AE690E0E4CFF70161A172A123
:103EA000626081E094E0C3D8B80184E094E0D9CFA7
:103EB000EF92FF920F931F93DC01ED91FC9100A014
:103EC000F1A1E02D7801890121E030E019951F91E1
:103ED0000F91FF90EF9008950895FC016370668B39
:103EE0008481958126813781613039F0633029F0F2
:103EF000918780873387228708953187208793872A
:103F0000828708952F923F924F925F926F927F9295
:103F10008F929F92AF92BF92CF92DF92EF92FF92D9
:103F20000F931F93CF93DF93CDB7DEB76A970FB68A
:103F3000F894DEBF0FBECDBF9A8F898F7A836983D5
:103F40004A01D22E18870F833701BC2CDC01599609
:103F50002D913C915A972115310509F015C11896FC
:103F60008D919C911997681779070CF0D7C11A9613
:103F70008D919C91481759070CF0D0C14C2C512CB5
:103F8000B6E0CB9E600D711D11247C876B871616E1
:103F900017060CF0C3C1EA2DF0E0FA87E98793E039
:103FA000EE0FFF1F9A95E1F7F88BEF87CF01840F93
:103FB000951F181619060CF0B1C1A98DBA8D589627
:103FC0008C91811104C0BFEABD1508F4D394A98D6A
:103FD000BA8DED91FC9111970284F385E02DCD010E
:103FE0001995B5E0DB9EC0011124E981FA81FC83BB
:103FF000EB83312C212C9C012157354E388F2F8B90
:104000004A2D50E05E8B4D8BEF89F88DE20DF31D4C
:1040100044919E828D82D12CC12C69817A81620D5E
:10402000731D7A8B698B842F90E09C8B8B8BE98D31
:10403000FA8DA081B18140FF82C0F1E0BF126FC054
:10404000AF126DC01C96ED91FC912F813885A401B3
:104050004C0D5D1D69897A89898D9A8D1995EB8939
:10406000FC89F595E7954E2F5FEFC51AD50A6D814E
:104070007E818D899E89680F791F7E836D8398E08C
:10408000C916D10481F6AFEF2A1A3A0AEB81FC81F6
:10409000E40DF51DFC83EB83F5E02F16310409F0E8
:1040A000B3CF2F81388526153705B9F0A98DBA8D84
:1040B000ED91FC91B1E0BB1257C0AB1255C06981C4
:1040C0007A816B5F7F4F0088F189E02D830128E0C2
:1040D00030E0A401898D9A8D1995A98DBA8DED9145
:1040E000FC9111970688F789E02DCD016A960FB6ED
:1040F000F894DEBF0FBECDBFDF91CF911F910F911E
:10410000FF90EF90DF90CF90BF90AF909F908F90F7
:104110007F906F905F904F903F902F9019941E96D4
:10412000ED91FC91EF80F88409851A8592014D810B
:104130005E816B817C81898D9A8D199590CF2F81BD
:1041400038852615370509F48ACF31E0B31207C048
:10415000A31205C01C96ED91FC91930178CF1E9699
:10416000ED91FC917301E0CF6B857C856419750935
:104170000684F785E02D73010F8518899201A4014B
:10418000898D9A8D1995A9CFF9013496949132971A
:1041900045915491D91AB7E0DB9E400D511D112471
:1041A000F901259134913C8B2B8BFA0125903490A9
:1041B000FA013296749031963491398B329664902C
:1041C0003196449041E04C1518F04A1508F07FC034
:1041D000662D062C000C770B7C836B83842D042CBE
:1041E000000C990B9E838D83A98DBA8DED91FC9166
:1041F00011970284F385E02DCD011995512CD12C16
:10420000C12CEA2DF0E0FA87E9872B2D30E03C87BE
:104210002B87A401440D511D47FC5A95588F4F8B95
:1042200069817A81660D711D67FC7A957E876D873D
:104230007989C71608F051CF2C2D30E04D815E8171
:10424000420F531FA985BA854A9FC0014B9F900D0D
:104250005A9F900D1124FC01E80DF91DF88BEF8792
:10426000852D612C4F89588D420F531F5E8B4D8BCE
:10427000671408F050C044244394480E877041F4FA
:10428000C1010196EB89FC89E20DF31DD4901C015C
:10429000D7FE19C0A98DBA8DED91FC91662D70E005
:1042A000B1E0BB1219C0AB1217C02D853E85620F5D
:1042B000731F0484F585E02D2F8138854D895E8933
:1042C000898D9A8D1995DD0C6394842DD1CF1E8232
:1042D0001D821C821B8288CF4B815C81640F751FFD
:1042E000AB85BC856A9FC0016B9F900D7A9F900D36
:1042F000112469817A81680F791F0684F785E02D82
:10430000EF80F88409851A859D014F855889898D2C
:104310009A8D1995D8CF570CC3948ACF6A960FB649
:10432000F894DEBF0FBECDBFDF91CF911F910F91EB
:10433000FF90EF90DF90CF90BF90AF909F908F90C5
:104340007F906F905F904F903F902F9008958F9245
:104350009F92AF92CF92EF92FF920F931F93CF93C2
:10436000DF93EC01262F898D9A8D009709F050C0BC
:104370006A30D1F41D861C868D8948E0849F9001A7
:1043800011248E859F85820F931F9F878E8781E0E2
:1043900090E0DF91CF911F910F91FF90EF90CF9020
:1043A000AF909F908F9008956D3089F3CC88AD8841
:1043B0008F898823C1F08C859D8536E0C39E800D52
:1043C000911D1124488559854817590764F44E8575
:1043D0005F851D861C8638E0A39EC0011124840FD2
:1043E000951F9F878E87EA88FB88088919894E85E3
:1043F0005F856C857D85CE0185DD2C898C859D85CD
:1044000046E0249F800D911D11249D878C87BFCF8E
:104410006A3069F41D861C86FC013896E4912D896A
:104420008E859F85E29F800D911D1124AECF6D304A
:1044300009F4ADCFFC0134963491631708F4A7CF8B
:104440003296E491E61708F4A2CFFC0132968590EB
:104450009490462F431B342F47E0349F800C911CCF
:104460001124F401329634913196E4913323A1F171
:10447000EE2391F1CC88F4013596E491AD884F8913
:10448000442301F10E2E000CFF0BE30FF11DCE9E15
:10449000A001CF9E500D11246C857D85460F571FBE
:1044A00068857985641775076CF44E855F851D8670
:1044B0001C86FC013896E491AE9E400D511D1124DE
:1044C0005F874E87EA88FB88088919894E855F8552
:1044D0006C857D85CE0116DDF4013496E4912C893E
:1044E0008C859D85E29F800D911D11248ECF6F924A
:1044F0007F928F929F92AF92BF92CF92DF92EF9274
:10450000FF920F931F93CF93DF93EC016B015A013E
:1045100039014801E881F9810284F385E02D19957C
:10452000E881F9810288F389E02D87019301A501D3
:10453000B601CE011995A501480D591D41505109EB
:10454000E881F9810288F389E02D9301B601CE015B
:104550001995E881F9810088F189E02D9401A50180
:10456000B601CE011995C60CD71CB6016150710970
:10457000E881F9810088F189E02D9401A501CE013F
:104580001995E881F9810688F789E02DCE01DF9140
:10459000CF911F910F91FF90EF90DF90CF90BF9040
:1045A000AF909F908F907F906F9019946F927F92B1
:1045B0008F929F92AF92BF92CF92DF92EF92FF9233
:1045C0000F931F93CF93DF935C01EB016A014901C5
:1045D00038018701DC01ED91FC916217730719F531
:1045E000641675062CF0962D872D3A01C92ED82E0B
:1045F0009601261937092F5F3F4F048CF58DE02D6A
:10460000A301BE01C5011995DF91CF911F910F91B3
:10461000FF90EF90DF90CF90BF90AF909F908F90E2
:104620007F906F9008954615570591F42617370728
:1046300024F0892D4B01C22FD82F9E01281939094A
:104640002F5F3F4F068CF78DE02DA601B401DACF26
:104650000284F385E02D1995D501ED91FC91048834
:10466000F589E02D83019401A601BE01C5011995CC
:10467000D501ED91FC910688F789E02DC501DF9108
:10468000CF911F910F91FF90EF90DF90CF90BF904F
:10469000AF909F908F907F906F901994EF92FF92C0
:1046A0000F931F93DC011A960D911C911B9718967E
:1046B0002D913C911997ED91FC9100A0F1A1E02D75
:1046C0007B0150E040E070E060E019951F910F9190
:1046D000FF90EF9008954F925F926F927F928F922A
:1046E0009F92AF92BF92CF92DF92EF92FF920F9381
:1046F0001F93CF93DF936C012B015A0139014801BD
:10470000DC01ED91FC910284F385E02D1995E20125
:10471000640C751CD601ED91FC91C615D7055CF4AF
:104720000088F189E02D87019401A501BE01C60131
:1047300019952196EFCF0688F789E02DC601DF9104
:10474000CF911F910F91FF90EF90DF90CF90BF908E
:10475000AF909F908F907F906F905F904F90199443
:104760008F929F92AF92BF92CF92DF92EF92FF9281
:104770000F931F93CF93DF93EC015B014A01690113
:10478000E881F9810284F385E02D199595012C0DBE
:104790003D1D21503109E881F9810488F589E02D1A
:1047A00078018401A401B501CE011995E881F98150
:1047B0000688F789E02DCE01DF91CF911F910F91EF
:1047C000FF90EF90DF90CF90BF90AF909F908F9031
:1047D00019948F929F92AF92BF92CF92DF92EF92F5
:1047E000FF920F931F93CF93DF93EC015B014A017C
:1047F00069017801E881F9810284F385E02D19953A
:10480000C80CD91C860101501109E881F98104887E
:10481000F589E02D9501A401B501CE011995E88136
:10482000F9810688F789E02DCE01DF91CF911F91A4
:104830000F91FF90EF90DF90CF90BF90AF909F903F
:104840008F901994EF92FF920F931F93DC01ED91DB
:10485000FC9100A0F1A1E02D19951F910F91FF90FF
:10486000EF9008950F931F93DC01ED91FC91068C5E
:10487000F78DE02D19951F910F9108950F931F93B8
:10488000DC01ED91FC91048CF58DE02D19951F91C3
:104890000F910895DC01ED91FC910084F185E02DEC
:1048A00019942F923F924F925F926F927F928F92C4
:1048B0009F92AF92BF92CF92DF92EF92FF920F93AF
:1048C0001F93CF93DF9300D01F92CDB7DEB76C015B
:1048D0005B015C834B8381E090E04C01841A950A74
:1048E0002A01519441945108440C551CF12CE12C9F
:1048F00066246394712C422F44704983522F527066
:104900005A83822F8870282E2170322E4B815C8131
:10491000E416F5060CF07BC097FC09C04150510924
:104920005C834B8352E0450E511C840C951C8FEF29
:10493000E81AF80A92E0690E711C860C971C4981EE
:104940004423B1F098014B815C814A0D5B1DB60197
:104950006E0D7F1D87EC94E09DDF9801A5014E0D43
:104960005F1D6B817C816C0D7D1D87EC94E092DF77
:104970005A815523B9F09801A5018B819C81481B70
:10498000590BB6016E0D7F1D87EC94E083DF980113
:10499000A5014E195F096B817C816C0D7D1D87EC33
:1049A00094E078DF2220B9F09801A5014E0D5F1D3B
:1049B000B6018B819C81681B790B87EC94E06ADFE0
:1049C00098014B815C814A0D5B1DB6016E197F0910
:1049D00087EC94E05FDF332009F498CF9801A501BC
:1049E0004E195F09B6018B819C81681B790B87EC9E
:1049F00094E050DF9801A5018B819C81481B590BE5
:104A0000B6016E197F0987EC94E044DF7FCF0F90E9
:104A10000F900F900F90DF91CF911F910F91FF900A
:104A2000EF90DF90CF90BF90AF909F908F907F904E
:104A30006F905F904F903F902F9008952F923F92EC
:104A40004F925F926F927F928F929F92AF92BF929E
:104A5000CF92DF92EF92FF920F931F93CF93DF934A
:104A60003C017B012A0169014A018EE0881A910804
:104A7000530187E0A80EB11C9401AB01B50187EC8E
:104A800094E0F0DE16012E0C3F1CA10141505109AB
:104A90009401B50187EC94E0E5DE8EE0C81AD108F8
:104AA00087E0E80EF11C9601A701B30187EC94E0C2
:104AB000E5DE640C751CB301615071099601A70114
:104AC00087EC94E0DBDE21E047E050E0B701C50170
:104AD000E8DE88E0681A710822E047E050E0B7019C
:104AE000C301DFDE88E0281A310824E047E050E007
:104AF000B101C301D6DE28E047E050E0B101C501B5
:104B0000D0DEDF91CF911F910F91FF90EF90DF905A
:104B1000CF90BF90AF909F908F907F906F905F905D
:104B20004F903F902F9008952F923F924F925F9217
:104B30006F927F928F929F92AF92BF92CF92DF92AD
:104B4000EF92FF920F931F93CF93DF9300D000D08B
:104B5000CDB7DEB73C016A013E832D83FC82EB8238
:104B60005801A41AB50AB7FE03C0B194A194B108C4
:104B70008D809E80861A970A97FE03C09194819437
:104B800091088A149B045CF0902F812F0D811E8167
:104B90009D838E839C2D8D2D6B01692F782F0C1595
:104BA0001D055CF09D818E817E836D83692F782F3A
:104BB000902F812F8601C92ED82E1601201A310A76
:104BC0002B012D813E81421A530A57FE03C0519496
:104BD00041945108710137FE03C03FEFE31AF30A15
:104BE000F594E7948D819E81861797075CF5A1E087
:104BF000B0E0BA83A983C016D1064CF1D301ED9180
:104C0000FC910484F585E02D2B813C81A8016D8108
:104C10007E818A149B041CF04D815E81B801C30122
:104C20001995E418F508F7FE0AC02D813E818981A7
:104C30009A81280F391F3E832D83E20CF31C0F5FEE
:104C40001F4FD9CF2FEF3FEF3A832983D4CF26963A
:104C50000FB6F894DEBF0FBECDBFDF91CF911F918D
:104C60000F91FF90EF90DF90CF90BF90AF909F900B
:104C70008F907F906F905F904F903F902F9008950E
:104C800090E080E0089580339CF08A3324F08F35E3
:104C900024F08B3724F481E0089581344CF08B3577
:104CA000D4F393ED980F81E09230B0F380E0089553
:104CB0008B32B9F7F0CFFC01878181110AC0A48142
:104CC000B581CD010196958384838C91868381E0A3
:104CD0008783868108959F92AF92BF92CF92DF9291
:104CE000EF92FF920F931F93CF93DF9300D01F9209
:104CF0001F92CDB7DEB78C01DEDFD82ED801179614
:104D00001C92F12CE12C70EFC72EC801D4DFF80102
:104D10001782D81609F4C4C0811119C0F801E65BE6
:104D2000FF4F81E090E09183808380E00F900F90AF
:104D30000F900F900F90DF91CF911F910F91FF90E7
:104D4000EF90DF90CF90BF90AF909F9008958C35FB
:104D500009F09BC0C801AFDF882301F3EFE8F2E060
:104D6000853709F086C0D80117961C9264E0962E0C
:104D7000B12CA12CC8019FDF882381F281344CF42F
:104D80008053803148F0F801E65BFF4F82E090E00D
:104D9000CACF8F7D8753F5CF54E0AA0CBB1C5A9520
:104DA000E1F7A82AF80117829A949110E3CFC50180
:104DB000985D8115944020F4750123E0F222A5CF7F
:104DC000C5019C5D8115944028F5B3E0BB22C70165
:104DD000982F8827990F990F8A299B29B0E0A0E086
:104DE0001196198280389105A105B105B8F48A831E
:104DF000FE0133968291882309F487CFD8014D9123
:104E00005C9111979A012F5F3F4F2D933C93DA01EC
:104E10008C93F0CFC501B0E0A0E0E3CF282F2F7333
:104E200020682A8336E0B695A795979587953A9599
:104E3000D1F78032910528F4806C8B83FE01349683
:104E4000D9CF282F2F7320682B8326E0969587953E
:104E50002A95E1F78031910528F4806E8C83FE015C
:104E60003596C8CF80688C83CD82FE013696C2CF3E
:104E700032969081992309F486CF8913F9CF8181E5
:104E8000882309F480CFF8011782D801ED91FC91B5
:104E900011979F012F5F3F4F2D933C93808335CF18
:104EA000D8010190F081E02DCF0101968D939C9364
:104EB000108281E03BCF1F93CF93DF93EC01162F3D
:104EC000FADE811306C01F8281E0DF91CF911F912E
:104ED000089580E0FACFCF93DF93EC01CE01EBDEB3
:104EE0008B3034F4893044F4882341F081E00DC0E4
:104EF0008D3011F08032D1F71F82F0CFC65BDF4FCB
:104F000081E090E09983888380E0DF91CF910895DC
:104F1000CF93DF93DC01EB01EC81FD818A819B81E2
:104F20000896E817F90730F4F0E0E0E0CF01DF91F0
:104F3000CF9108953897FD83EC833097A9F31296AB
:104F4000CD91DC911397209791F0CF018C1B9D0B95
:104F500023E0959587952A95E1F78D831396FC9329
:104F6000EE9312971582148217821682DFCF119664
:104F7000FC93EE93F3CFEF92FF920F931F93DC011C
:104F80001A960D911C911B9718962D913C9119978B
:104F9000ED91FC9100A0F1A1E02D7B0150E040E0FB
:104FA00070E060E019951F910F91FF90EF900895C8
:104FB000EF92FF920F931F93DC01ED91FC9100A003
:104FC000F1A1E02D780101E010E019951F910F91FA
:104FD000FF90EF900895FC0124813581FB0144810D
:104FE000558124173507E1F4FC0180819181FB0193
:104FF000608171810097D1F061157105A1F4232BB7
:10500000C1F0FC01808190E008C0232B91F0FB01EE
:10501000808190E091958195910921E0892B09F09B
:1050200020E0822F08950E94C844F7CF61157105D2
:1050300061F721E0F6CF0F931F93CF93DF938B019E
:10504000EC012097E1F06E817F8160177107B9F064
:105050000115110541F06115710529F0C8010E9483
:10506000C844892B61F08D81882339F028E08202C1
:10507000C0011124C80FD91FE4CFD0E0C0E0CE0199
:10508000DF91CF911F910F9108954F925F926F9290
:105090007F92BF92CF92DF92EF92FF920F931F9376
:1050A000CF93DF93EC018B01E42E15DFF82E8111F5
:1050B00010C0F12C8F2DDF91CF911F910F91FF9098
:1050C000EF90DF90CF90BF907F906F905F904F9068
:1050D0000895CE01F0DD873209F4F2C0F4F4823293
:1050E00009F4EEC0CE01E7DDB82E6E01FAE0CF0E76
:1050F000D11CE12C36018B2DC6DD882309F4F4C0C8
:105100002FE3E21609F4F0C01F82E394D601BD92AA
:105110006D01CE01D0DDB82EEECF8B3509F443C042
:105120008B3701F7F8018481807880628483118253
:10513000108213821282EE2009F447C01F82CE0132
:10514000CADE882309F4B5CF6DE7CE01B4DE811144
:10515000B1CFEA94888199819B838A83CE01ABDDAC
:10516000873209F46BC0823209F468C0CE01A3DD36
:10517000D82E89DD882309F45CC01F82E881F9817B
:10518000CF01019699838883D082CE0194DDD82EF9
:105190007ADD8111F2CFE881F981CF0101969983FF
:1051A0008883108250C0D80114968C91149780780F
:1051B000806414968C93149711961C921E921396E9
:1051C0001C921E921297E11007C0C65BDF4F85E06C
:1051D00090E0998388836DCF1F82CE017CDE882387
:1051E00009F467CF6DE5CE0166DE811163CFEA94E5
:1051F00068857985C8018CDE009729F4C65BDF4F8E
:1052000083E090E0E6CF4E2DBC01CE013EDF882347
:1052100009F44FCFCE015FDE882309F44ACF6DE554
:10522000CE0149DE811146CF6CE2CE0144DE811110
:10523000DFCFC65BDF4F82E090E0CBCFCE014BDD0E
:10524000882309F436CFCE0146DE882309F431CF16
:105250006AE3CE0130DE882361F3CA80DB80B601C9
:10526000D8018D919C91E7DEBC01892B71F4688592
:105270007985C8014DDEFC01892B09F4BFCF8481FB
:105280008F778483D782C682BF014E2DCE01FDDE8B
:10529000882309F40ECFCE011EDE882309F409CF3E
:1052A0006DE7CE0108DE811105CF6CE2CE0103DE91
:1052B000882309F4BECFCE010EDE81114BCFF9CE8B
:1052C000888199819B838A83CE0105DDF82E88230E
:1052D00009F4EFCE2A813B81F801848180788460D3
:1052E000848331832083E6CEFE01EE0DF11D12860C
:1052F0008A858437B1F4F80184818078866084835C
:1053000081E090E0A0E0B0E080839183A283B3834A
:10531000F4E0EF1609F4CECEC65BDF4F81E090E0FB
:1053200058CF863679F4D80114968C9114978078EA
:10533000866014968C93F801108211821282138277
:10534000F5E0E7CF8E3621F424E0E212E5CFB2CECD
:105350008B32E1F1F3018D32D9F5FE013B96BF2C82
:10536000808190ED980F9A3018F08E3209F061CF5D
:105370006F0120E030E0A901F6018191A0EDEA2E55
:10538000E80E99E09E1530F12A39A9E93A074A0753
:10539000A9E15A0778F5AAE0B0E00E94BB419B0161
:1053A000AC018E2D90E0B0E0A0E02C013D014094D6
:1053B0005094609470944216530664067506D0F0BB
:1053C000280F391F4A1F5B1F6F01D6CFFE013B9686
:1053D000B12CC6CF81110EC0F8018481BB2009F425
:1053E000E6C080788A60848320833183428353833C
:1053F000FB2C60CEE12CEAE04E2E512C612C712C5E
:1054000021153105F0E84F07510540F0CA01B901F7
:10541000A30192010E947C42E394F2CFF601D601EF
:105420008D916D0190ED980F9A3010F4E394F6CFC2
:105430008E3211F56F01BFEFCB1ADB0AF6018FEF49
:10544000C81AD80A808170ED772E780E99E09715EA
:1054500098F02C3CACEC3A07ACE04A07510570F7E9
:10546000AAE0B0E00E94BB419B01AC01270D311DB9
:10547000411D511DEA94E2CF80818F7D853409F072
:105480007BC081818D32C9F532967F2CDF0190E09F
:1054900080E0CE2C0E2C000CDD086AE0562EFD01BB
:1054A0006D9060ED660D6A30D0F5589EB001599E42
:1054B000700D1124862D660C990BC097860F971FCF
:1054C000BC016C0D7D1D673271054CF37720E1F056
:1054D00080E090E0A0E0B0E8B11003C080E090E090
:1054E000DC01BC01CD01F801248120782C602483EB
:1054F0006083718382839383DDCD8B3219F0319683
:10550000712CC4CF3296FCCF80E090E0A0E8BFEFD2
:10551000B110E7CF80E090E0A0E8BFE7E2CF7720CE
:1055200019F09195819591096081611182CEEC010C
:10553000CE0DD11DE7FCDA95CA01B9010E94A64043
:105540001C161D06E4F4E12CC0FF0CC024E0E29E12
:10555000F0011124E75CFD4F2081318142815381AC
:105560000E940741D595C795E394209769F7BB2022
:1055700009F4B9CF9058B7CF90E080E0D5CFD1955E
:10558000C195D109E12C209791F3C0FF0CC0B4E084
:10559000EB9EF0011124EF5DFD4F208131814281AE
:1055A00053810E940741D595C795E394ECCF80784D
:1055B0008860848320833183428353837BCDFC01C5
:1055C000248125FF03C08081918135CD90E080E06A
:1055D0000895CF93DF93DC011496ED91FC916E1743
:1055E0007F0728F54115510511F19F01261B370B47
:1055F0004217530708F49A01DB01EC018881998175
:10560000E21BF30BFD83EC83AF01461B570B260F08
:10561000371FBC01620F731F8A0F9B1F0E94D84463
:10562000E881F9818C819D81E80FF91F1082DF915B
:10563000CF9108950F931F93CF93DF938C01EB01CC
:10564000FC01808191810097E1F068817981611589
:105650007105A9F0428153812C813D814217530786
:1056600070F00E94D1448C819D81F80195838483E0
:105670001D821C82DF91CF911F910F9108950E948E
:10568000564388819981F801918380838A819B8127
:10569000938382838C819D81958384831982188270
:1056A0001B821A82E5CFCF93DF93EC018881998129
:1056B000009711F00E945643198218821D821C82A5
:1056C0001B821A82DF91CF910895FC018081918124
:1056D000009711F00C94564308950F931F93CF93A6
:1056E000DF93EC0188819981009759F02A813B81F1
:1056F0002617370730F081E0DF91CF911F910F918E
:1057000008958B016F5F7F4F0E94DF43009759F030
:10571000998388831B830A832C813D81232B59F72E
:10572000FC011082E8CF80E0E7CFEF92FF920F9369
:105730001F93CF93DF936115710541F480E0DF91F2
:10574000CF911F910F91FF90EF9008954115510552
:10575000A9F07B01EC010C811D81040F151FB8011C
:10576000BCDF882359F3288139818C819D81B70161
:10577000820F931F0E94D1441D830C8381E0DFCFF1
:10578000EF92FF920F931F93CF93DF93EC01861755
:10579000970771F0FB01008111810115110531F0AE
:1057A000E480F580B70199DF81110AC0CE017BDF6B
:1057B000CE01DF91CF911F910F91FF90EF9008954F
:1057C000FD82EC82B801888199810E94D144F0CF9A
:1057D000EF92FF920F931F93CF93DF93EC01198207
:1057E00018821B821A821D821C826115710511F1BB
:1057F0008B01FB0101900020E9F731977F01E61A48
:10580000F70AB7016ADF811108C0CE01DF91CF919D
:105810001F910F91FF90EF9046CFFD82EC82B8016F
:1058200088819981DF91CF911F910F91FF90EF9027
:105830000C94D144DF91CF911F910F91FF90EF9085
:1058400008956F927F928F929F92AF92BF92CF9264
:10585000DF92EF92FF920F931F93CF93DF93CDB719
:10586000DEB7380185013093E1042093E004909382
:10587000D4048093D3047093D6046093D5044093EA
:10588000DB044093DC04F092DA04E092D904F09255
:10589000D804E092D704C114D10481F0AB2871F090
:1058A0008114910459F0AB0148195909F12CE12CEC
:1058B0009601BC0187EC94E00E94651B61147104A1
:1058C000D9F0F30101900020E9F73197AF014619B3
:1058D0005709B30187EC94E0DF91CF911F910F91AD
:1058E000FF90EF90DF90CF90BF90AF909F908F9000
:1058F0007F906F900C940E14DF91CF911F910F91B8
:10590000FF90EF90DF90CF90BF90AF909F908F90DF
:105910007F906F900895CF93DF93EC01EAA1FBA1F4
:10592000E80FF91F1282BC016E5F7F4F59F0FB0137
:1059300001900020E9F73197AF01461B570B888192
:105940009981F3DE1BA21AA2DF91CF910895CF9324
:10595000DF93EC018AA19BA19C012F5F3F4F3BA3EA
:105960002AA3FE01E80FF91F62830296809710F0C8
:10597000CE01D1DF8CA19DA101969DA38CA3DF91C7
:10598000CF910895EF92FF920F931F93CF93DF93E0
:10599000EC017B0162E2DBDF8701F80161918F019D
:1059A000662381F0EFE8F2E0F280FF2041F03296CA
:1059B00081816813F9CF6CE5CE01C9DF6F2DCE016F
:1059C000C6DFEBCF62E2CE01DF91CF911F910F9145
:1059D000FF90EF90BCCFCF92DF92EF92FF920F93A8
:1059E0001F93CF93DF938C016A01EB017B01E40EDF
:1059F000F51ECE15DF0591F02991F80182A193A142
:105A0000AC014F5F5F4F53A342A3E80FF91F2283FE
:105A10000296809770F3C8017EDFEBCFC601DF915D
:105A2000CF911F910F91FF90EF90DF90CF9008954D
:105A3000EF92FF920F931F93CF93DF93CDB7DEB713
:105A400066970FB6F894DEBF0FBECDBF8C01CB01B9
:105A5000FE0177969F014AE0E42EF12CB7010E94E7
:105A60006942805D8293CB010097C1F7A9014E1B6B
:105A70005F0BBF01C801AFDFF80124A135A1820F80
:105A8000931F95A384A366960FB6F894DEBF0FBE4E
:105A9000CDBFDF91CF911F910F91FF90EF900895AF
:105AA0008F929F92AF92BF92CF92DF92EF92FF922E
:105AB0000F931F93CF93DF93CDB7DEB766970FB6E3
:105AC000F894DEBF0FBECDBF7C018E01095E1F4F73
:105AD00068018AE0882E912CA12CB12CCB01BA014F
